:10000000BDEF78B5DD6F9FD09A809AC49FD49A29AE
:100010009A2A9FD89A009A00BCC600BCC7D8BCEDEB
:1000200000BCE700BCEB00BCEE909F6F9E00CEFCD6
:10003000BDD07FBD437CD502D418BCE600BC427F56
:100040009F3F78D6013E6ABD0170689FE86D7501DB
:10005000FD6DBCC7D832009F2ED606DB023A2C8934
:10006000059814BD457E9F2ED62EDB113A2C890AA9
:1000700098013A74BD457EBC1A0553D632DB033A6B
:100080002C890498003A6E9800BD3F7E39DFBD3F51
:100090006E3571BD3F71FA35E8BD447E3911D70A1E
:1000A0009D249CF09D219CF3D11430D83765357187
:1000B00030D8BD3F710435E836D230D8BD3F710429
:1000C000325D351430D8BD3F710838813AA33B14F6
:1000D000320030D83B8D20AABDE87501FBBDE86D2C
:1000E000BCC7D8395D3BE1B58E00000000000000C0
:1000F0000000000000000000000000000000006799
:100100009DFE679DFC679DEF67B4D018BDE8750143
:10011000FBBDE86DBCC7D8C0F3313CB53E069F1DA2
:10012000A6AE95C092802D2A92402D19AED038D11E
:100130000E9DF0A48204C0B5C1F79DF0BD3F7EBD09
:10014000446E9FC09AA09A019AA09A019AA09A011F
:10015000BCC6943EF0D50A980039DF9FDC7CBDD048
:100160007F9F389B009B003EF098553DCBD6003ECC
:100170006A3EF09D003DCB3EF09D013DCB3EF0D66A
:1001800003D7033E6A9D003DCB9D013DCBC6B8C75A
:10019000F28E0000000000000000000000000000DF
:1001A000000000000000000000000000000000004F
:1001B000000000000000000000000000000000003F
:1001C000000000000000000000000000000000002F
:1001D000000000000000000000000000000000001F
:1001E0000F1E0F1E0F1E0F1E0F1E0EF60F1E0F1ED0
:1001F0000F1E0F1E0F1E0F1E0F1E0F1E0F1E0F1E97
:100200009FDCBD457504BD4370027C119D0FBD4E42
:1002100083F8A0940F8898FFBD4E83016C9FD0BDDA
:1002200043740109A9F500010ABD436C04BD437381
:10023000026F017F9D4796FF9C47DC47BC01B03FA2
:10024000669C399D4796FF9C479D399FDC92FF092C
:10025000A9F2FF07BDF28301027A016A8EDC4F9F8B
:100260005137829C4BBD4275011DBC47FF9F4379AE
:10027000BD44731153D63ADB033A2C890498003AF3
:100280006E9F447B69248CBD43710117BD4369D5C2
:100290000053D632DB033A2C890498003A6E9F440F
:1002A0006B696ADC425FBE96FF97E8A67211AE9654
:1002B000FB99000EBC4700BD456EBD457A248CBD40
:1002C000456A710EAE96FD99000BBD457ABD457E1F
:1002D00022F3BD456A740AAE96EF990004BD456EDF
:1002E00012700DAE96FE99000ABD456EBD457C03A9
:1002F000BD456CBD457605BD457701119D57A19162
:1003000032899800A0A88898FF9C47248C9D4B9424
:10031000805FA69803BD3C83233FAE937E01139379
:1003200082011C9F4A77010264A69F4877011064EE
:10033000A60D9F4A770264A69F48771F64A61CBD3E
:100340004472189D5258BD3D7B389FBD5083010BB0
:10035000BC47FFBC4DFFBC3BFF248CBD447ABD4471
:10036000711153D636DB033A2C890498003A6E9FFC
:1003700044796B9F4B7707AEBD0883BD446CDC4F5F
:100380005EBEA39E009F5237825DA29D25A337A526
:1003900034D934EA9F4BAE5DA29D26A337A534D94C
:1003A00034EADC249FF064B923CABBA65DBEA2BBBD
:1003B00096FF8AA69F4B34988810BD44770CA09D69
:1003C0004A6080A1B09C4ABD447F9D4A5DA29D27A2
:1003D000A337A534EA5D9EA634EABA92000A60808B
:1003E00004BC01FF03BC0100BEDC4DB69F159D524D
:1003F000BD3D7B389F94809F4D8302A608BD447409
:10040000049D2C83A6DC4D9F5037829F49A6AE5D8C
:10041000DC4DBEA29D1EA337A2ABA39E009D4DA0A6
:10042000905A8898FF9C3BDC3B9F5237825DA6AA7E
:1004300094809C3B9D1BA337A534D934EA9F49AED9
:100440005DA29D1CA337A534D934EADC219FF36457
:10045000B90EBBA65DBEA2BB96FF8AA69F49349883
:100460009D485DA29D1DA337A534EABA92000A609B
:100470008004BC01FF03BC01009F473782608003FA
:1004800096FF8AA0BD19808803BEA6AEBD43720147
:1004900006BC4700BD447C8EA064828EAB60801B8E
:1004A000BD0283018EA19D4793FF8E92FF8EBE7782
:1004B00008846080987FA6A18E84FBA1A903000810
:1004C000BD03838EBD03828E9D47BE96FF8A770152
:1004D000E8846080E1988024B6A0608006A86080EF
:1004E000987F8EA860808E98808EB5DC01BEA0803B
:1004F000B3BE7794FF9000B68660808EBE770B60A7
:1005000080018E987FB298FFB38E60808E9880B203
:100510009800B38E9F43BD427302256EBD42742581
:100520006CBD4577256EBD427002256E9D3B937F65
:10053000079D52BD108316079D3B9383256E1F9D1B
:1005400052A090038898FFBD108313256E7A700E19
:100550009D4DA0BD29848898FFBD5083130E9D4DED
:10056000A1BD2881899800BD5083040478026A687F
:100570008EBDD97F9FCB9AC737FA938705BD3F7948
:1005800025E7BD3F699C53BD447DBDD96D9807DC0F
:1005900006BC000EA0380008890DBD457F3A7207E1
:1005A0009F5DBC4605368EBDD97DBDD96E9827DCD2
:1005B00005BC0008A0380008890DBD457F3A7207C8
:1005C0009F5BBC460A368EBDD97EBDD96F9847DC8D
:1005D00004BC000BA1380008890DBD457F3A7207A5
:1005E0009F59BC460F368E8EBD446D9FCB9A6737A0
:1005F000FA9F53DC01B364B23744BEDC06BC000290
:10060000A0386A08891BBD437E3A72159F3CA6AE8E
:10061000A1BD5781880396FF8AA69F57BC46103616
:100620008E9887DC05BC0005A0380008890DBD4503
:100630007D3A72079F55BC460A368E9FCB9AA737E4
:10064000FA9F427D9380016D758E778E6468BDDA66
:1006500071017869BDDA7006798ABDDA728B7CBD6A
:10066000DA726C6BBDDA737BBC001192000C9C04D7
:1006700065A09010659C0489078E9C0495F09C04ED
:100680006AAE951392007AAE9C41859C428EBD4421
:100690007604A39E7F8EB904AB9E7F8E8319BD44E2
:1006A0007505A18193FDF1ABAEA1BD46818902A67E
:1006B0008E9A7FAE8BA68EBD447507A181930302EF
:1006C0002698ABAEA0BD46808802A68E9A7FAE8AE1
:1006D000A68EDC5DBC018E3F669F3237389C52DCB3
:1006E0005BBC018E3F669F3137389C51DC59BC01A1
:1006F0009F3F669F3037389C50DC55BC018E3F666B
:100700009F2F37389C4E5F9D57A29D2BA337A2AEDB
:10071000BD2A84BD4376989F9C4F5F9D3CA29D2B34
:10072000A337A2AE9C3CBD3F760D9F119D52BD3DAF
:100730007B389F9F4F84A68EA08077048898FF8E79
:100740008998008EDB08A0BB8318BEA8B2BEA8B6ED
:100750008804BE830105A1BE81B6A1BBCBECBEA8B7
:10076000B68E98FFFBC70ED70AA9F00002C0B8A941
:10077000F30002C3B8C2B8C408D418A9F50002C572
:10078000B88EBEA181880660800298808E6080014C
:100790008E987F8EABA8AE9000A68EABA8AE9100CF
:1007A000A68E37B2EF37C5ABAA60800337948E3779
:1007B0009B8EDB0964A0B0A6B0A28902A080A6A38C
:1007C000CBF4A2A68E7701EA37EB37B237EBABAEAC
:1007D00096FF9000A28EAA856080047709ABE63769
:1007E000EBAB37EB27B2ABA2A327C5AE96FFA09029
:1007F00001A68E9FCBDAA5CAFEA2DA0ACAFEAB8E8C
:1008000037F3BD3F768E92FF283393001ABDD07B1D
:10081000BDD17BAE37F5BDD16BBDD06B9301079DCC
:10082000008A9C00285864B6BD00730395F00295B9
:100830000FB68EBDD97CBDD87CAE37F5BDD96CBDA9
:10084000D86C93FE13880793E60898FF2827BDD637
:1008500070F89D0094029C009D00930707B665A068
:1008600090106504B6A09010B68DBD3F768E93F0C3
:10087000E793100105B695F0B68E9D008A9C00287E
:1008800058BD427301189D47BD427498FF9C3A9D24
:100890003A5FA29D1AA337B2DC38ABB3AEB68EA1D5
:1008A000819C01AA9DFE6788AAAA9C005F37D68C0E
:1008B0009402BD3D7328DF9CFE9D01A0805EA3AA2B
:1008C0009000930007AE937F9E7FAE8E6080049E63
:1008D0007FAE8E92FF0104AE937F8E9E80AE8E9C83
:1008E000FEDC01BEA8B3BEA8880A608010A08060AC
:1008F00080987F0B937F03988005A08002987FBD2E
:100900003D6B8E5FA29D1AA337B2DC38ABB3AEB697
:100910008ED305BCDCFFBC348298FF39039F38DCE2
:1009200036ABB3AEB69A009E00BDE87501FB394503
:1009300092AA01F59F389B009B009B009E00BC3A49
:1009400000BD437D8EBDE86DBCC7D8395D3BE1324B
:1009500000C304D305376598AABDDC858EBD3F7101
:100960008E9F34DC369D37BD358329A2BD3582018B
:100970000C9D38BD368329A2BD368229CE98AABDEA
:10098000DC8592AAAE92829E2292229E2892289E76
:100990008892889E82BE8B99FF05B3BE8BB601B646
:1009A00029C598AABDDC8592AAAE92889E28922875
:1009B0009E2292229E8292829E88BE8A990005B3D0
:1009C000BE8AB601B69855BDDC85879CDC8E98AA98
:1009D000BDDC8592AA08A698AABDDC879CDC8E9314
:1009E0006398649C339D335FA29D2DA337A2AEBD57
:1009F0002E84A0A8BDE6822A2BBD4273011B9F4313
:100A00007117BD3F7613742A2BA9F500011D9FE6CF
:100A1000D5018303AE8B02AE8A9FEE6C9CE698C82C
:100A2000A1BDE6819CECBDD46B7D7C8E9DFB676493
:100A30009C02DC003E6AB2A3B3A3C6B8CBF63E6A02
:100A40008C9CFBDC0264B264B6AAA0AABD0380B38E
:100A5000AABD0280B2CBF3A0BE9001B3BE9000B697
:100A6000A09D01BD03B9069D00BD02828E8EBD45CD
:100A70007F029D00BD437B9FFBA69818748A9CF65D
:100A80003E6A5EBDFB73AB9807BDFB858A9CFB6429
:100A9000A1A8CBFD8592000A96FF85A63E5B3E7716
:100AA0003E638EBD43718EBD457204BD4273049892
:100AB000002B0DBD4472049D0B2B0D9823BD457773
:100AC0001A9D4B60800105BD07830512BD08830395
:100AD0009D0B0857389FBD0C839D0C9C0311583B00
:100AE000109D4B389FBD0C839D0C9C03583B109D63
:100AF00052BD0E8316A19D0EBD52815FA29D0DA316
:100B000037A2AEA0BD03808898FF029C0339DF8E18
:100B1000A2A3A28EBD43748EBD4371018EBD4473EA
:100B2000018E9F3D9D4B6080176C6D6ED500BD079B
:100B300083039D0A0858389FBD08839D0839DF8EBE
:100B4000A9F500018E740E751A762B6D9D0B9CF520
:100B50007C6439DF8E6C7E98029CF59D50BD0C84C0
:100B60009C4C8E6D7C9D0B9CF56439DF8E9D50BD39
:100B70004C83139D3394029C339D33BD0A83073904
:100B8000DF98029CF58E6E7D98149CF58EC12BB972
:100B9000D119BDC6722BB9BDC6701ED63D3E6A9D29
:100BA000019200159CFCBE3BBA9D009CFCBE3BBA6A
:100BB0009DF68A933F039CF6E48EDB0AA002A1B067
:100BC000890AB8B8BDD47D3BD4CBF38EBDD46D3B80
:100BD000D4CBEB8EDA03CAFEB8B8B8B8B8B88EB8C2
:100BE000B89F40BD3F720EBDD6768EBD3F7A64A6DB
:100BF000D80CD90A8EC88EA0BDD676A1AEB0A6C933
:100C00000103D8188EBD3F6AAEA8890F9200210A51
:100C1000A6D61A3E6A9D0182210A8E9200018EBDDF
:100C20004374010DD6183E5B3E50D6193E503E63CC
:100C30008EBD3F7E980039DF9FDC7CBDD06F98AAC7
:100C400087A6BC2700BC21009F25D619DB023A2CC1
:100C50009FC09AA89A619AA89A619AA89A61BCC6FC
:100C600090D0FFBDC67301FBBDC66BBCC7D89F2724
:100C7000987E8599001DBDD6760268E7700E9D218D
:100C80009221E09E0078796FD01E2C6377057FD08B
:100C9000FF2C6378C02C637114722CD0762CDF7417
:100CA0002CF6732CF8752D077720002C63699D2195
:100CB0008A9C21DC25A1DB04BEB0B3CBFB8906A94D
:100CC00021212C63E99D219C269D219309112CF65D
:100CD0006ABDD06F9D26930901177ED00A2C636EE2
:100CE0009D26A1910A890ABDD07F9C267AD0142C1A
:100CF000637CD01E2C636C0F6BBDD06F9D26920061
:100D00002C637DD00A2C636D9D2692002C63BDD090
:100D10007F8B9C267BD0052C63AE953F9CF63E6A6C
:100D20009D003DCB9D013DCB211BAA3E06A23E0668
:100D3000A29F1DAA953F930705BD3F70211B9CF6FE
:100D4000AA9C00AA9C013E5B3E503E773E63211B5D
:100D50003E063DCB211B3E0601FE3903211B3571AA
:100D600035E836D29D4F3DCB9D513DCB211B357192
:100D700036D29D503DCB9D523DCB211B357135E880
:100D800036D29D4E3DCB9D423DCB211B357135E882
:100D90009D533DCB9D423DCB211B9DDA3DCB211B7D
:100DA0009DD63DCB211B9DD23DCB211B98083DCB31
:100DB000211B3E069CDC211B3E0695809CD0211BFE
:100DC0003E0639DF211BBD3F68211BBDE8750106CA
:100DD000BCC7D8BDE86D9C2764D00ABD3F7BBD3F32
:100DE0007CB5BD3F74FCA19C27B09C27B06040043B
:100DF000BDD46D04BDD47DB8BD3F7CB5BD3F74FC92
:100E0000C0E4BD3F6B8ED009649C40BDE87501060F
:100E1000BCC7D8BDE86DBDD674F1BD3F7BBDC66C07
:100E2000BCC010BCC100BDC67CBD3F7CB5BD3F741D
:100E3000FCA0BDD674A19D40B09C40C0ECBD3F7CE1
:100E4000B59D40BD3F74FCBD3F6BBDD6748E200088
:100E50009DF697C09C3EBC3D002E83BC3E30BC3D01
:100E6000002E83BC3E00BC3D00199DF697809C3E41
:100E7000BD3D78BD3D690C9DF697409C3EBD3D78DB
:100E8000BD3D79BDD07ABCD53ABDD46DBDEE7BBD3C
:100E9000D07E9CFE679FEFBCE9017A72FE9D3E9C6E
:100EA000E97A72FEBD3D70022ED2BD3D7116BCE9DD
:100EB00000BDEF7A6A7A72FE9CE97A9C0072FE9D10
:100EC000E99C01199D009CE97A72FE9D019CE97ADA
:100ED00072FEBDD06EBDD07EBDD67601FBBDD47D89
:100EE000BDD06E8C9CFEBDEE6BBCD52ABDD06A8E8B
:100EF0006492FF8E8AFBBD3F7313C511D50ABD43B3
:100F0000750998AABDDC8592AA3934395DBD3F6C5C
:100F1000BDC66B8C9CEF8C9CFC8C9CFE8C8F200047
:100F20004154434D414E08940FA5001220303234F5
:100F300038C0C1C2C3E0E1E2E9484A4C4E505254C5
:100F400056585A5C5E606264211B2D502D562D5EF2
:100F50002D6E2D7C2D8C2D9A2DA02DA62DAC2DB275
:100F60002DB82DC02DC65EBEA0950F9200A1BE95D6
:100F7000F06584A6AEA48815A68AA4A6A181A3A222
:100F8000BE96FF8A950F65A2A337A2AB848EFFE4BD
:100F9000CFBDAD9E9185786C60544739291600FF0E
:100FA000FFF2DBC8B6A69687786A5B4B3A2710003B
:100FB000FFD9AB80634D3B2E241A140F0B07060498
:100FC0000000000000000000000000000000000021
:100FD0000000000000000000000000000000000011
:100FE0000000000000000000000000000000000001
:100FF00000000000000000000000000000000000F1
:00000001FF
